{
  "address": "0xe7f1725E7734CE288F8367e1Bb143E90bb3F0512",
  "abi": [
    {
      "inputs": [
        {
          "internalType": "address",
          "name": "_token",
          "type": "address"
        },
        {
          "internalType": "address",
          "name": "_usdtToken",
          "type": "address"
        },
        {
          "internalType": "address payable",
          "name": "_owner",
          "type": "address"
        },
        {
          "internalType": "uint256",
          "name": "_tokenPrice",
          "type": "uint256"
        },
        {
          "internalType": "uint256",
          "name": "_tokensForSale",
          "type": "uint256"
        },
        {
          "internalType": "uint256",
          "name": "_openingTime",
          "type": "uint256"
        },
        {
          "internalType": "uint256",
          "name": "_closingTime",
          "type": "uint256"
        },
        {
          "internalType": "address",
          "name": "_priceFeedAddress",
          "type": "address"
        }
      ],
      "stateMutability": "nonpayable",
      "type": "constructor"
    },
    {
      "anonymous": false,
      "inputs": [
        {
          "indexed": false,
          "internalType": "uint256",
          "name": "tokensSold",
          "type": "uint256"
        }
      ],
      "name": "ICOEnded",
      "type": "event"
    },
    {
      "anonymous": false,
      "inputs": [
        {
          "indexed": true,
          "internalType": "address",
          "name": "purchaser",
          "type": "address"
        },
        {
          "indexed": false,
          "internalType": "uint256",
          "name": "amount",
          "type": "uint256"
        }
      ],
      "name": "TokensPurchased",
      "type": "event"
    },
    {
      "anonymous": false,
      "inputs": [
        {
          "indexed": true,
          "internalType": "address",
          "name": "owner",
          "type": "address"
        },
        {
          "indexed": false,
          "internalType": "uint256",
          "name": "amount",
          "type": "uint256"
        }
      ],
      "name": "Withdrawal",
      "type": "event"
    },
    {
      "inputs": [],
      "name": "buyTokensWithEther",
      "outputs": [],
      "stateMutability": "payable",
      "type": "function"
    },
    {
      "inputs": [
        {
          "internalType": "uint256",
          "name": "_amount",
          "type": "uint256"
        }
      ],
      "name": "buyTokensWithUSDT",
      "outputs": [],
      "stateMutability": "nonpayable",
      "type": "function"
    },
    {
      "inputs": [],
      "name": "closingTime",
      "outputs": [
        {
          "internalType": "uint256",
          "name": "",
          "type": "uint256"
        }
      ],
      "stateMutability": "view",
      "type": "function"
    },
    {
      "inputs": [],
      "name": "endICO",
      "outputs": [],
      "stateMutability": "nonpayable",
      "type": "function"
    },
    {
      "inputs": [],
      "name": "getRemainingTokens",
      "outputs": [
        {
          "internalType": "uint256",
          "name": "",
          "type": "uint256"
        }
      ],
      "stateMutability": "view",
      "type": "function"
    },
    {
      "inputs": [],
      "name": "openingTime",
      "outputs": [
        {
          "internalType": "uint256",
          "name": "",
          "type": "uint256"
        }
      ],
      "stateMutability": "view",
      "type": "function"
    },
    {
      "inputs": [],
      "name": "owner",
      "outputs": [
        {
          "internalType": "address payable",
          "name": "",
          "type": "address"
        }
      ],
      "stateMutability": "view",
      "type": "function"
    },
    {
      "inputs": [],
      "name": "priceFeed",
      "outputs": [
        {
          "internalType": "contract AggregatorV3Interface",
          "name": "",
          "type": "address"
        }
      ],
      "stateMutability": "view",
      "type": "function"
    },
    {
      "inputs": [],
      "name": "token",
      "outputs": [
        {
          "internalType": "contract ERC20",
          "name": "",
          "type": "address"
        }
      ],
      "stateMutability": "view",
      "type": "function"
    },
    {
      "inputs": [],
      "name": "tokenPrice",
      "outputs": [
        {
          "internalType": "uint256",
          "name": "",
          "type": "uint256"
        }
      ],
      "stateMutability": "view",
      "type": "function"
    },
    {
      "inputs": [],
      "name": "tokensForSale",
      "outputs": [
        {
          "internalType": "uint256",
          "name": "",
          "type": "uint256"
        }
      ],
      "stateMutability": "view",
      "type": "function"
    },
    {
      "inputs": [],
      "name": "tokensSold",
      "outputs": [
        {
          "internalType": "uint256",
          "name": "",
          "type": "uint256"
        }
      ],
      "stateMutability": "view",
      "type": "function"
    },
    {
      "inputs": [],
      "name": "usdtToken",
      "outputs": [
        {
          "internalType": "contract IERC20",
          "name": "",
          "type": "address"
        }
      ],
      "stateMutability": "view",
      "type": "function"
    },
    {
      "inputs": [],
      "name": "withdrawEther",
      "outputs": [],
      "stateMutability": "nonpayable",
      "type": "function"
    }
  ],
  "transactionHash": "0xabe7c98ad703b3160a68546339cdf5b38e54d0ad5669c1cb10617ee7041b7a86",
  "args": [
    "0xce6DF69E893ec894c0F60522ebD4e349AAc5F8C6",
    "0xdCdC73413C6136c9ABcC3E8d250af42947aC2Fc7",
    "0x70997970C51812dc3A010C7d01b50e0d17dc79C8",
    1,
    1000000,
    1713175706,
    1713262346,
    "0x5FbDB2315678afecb367f032d93F642f64180aa3"
  ],
  "numDeployments": 1,
  "solcInputHash": "69bd9637cd3635b32884f551309ef30f",
  "bytecode": "0x60806040523480156200001157600080fd5b5060405162001afe38038062001afe83398181016040528101906200003791906200024e565b876000806101000a81548173ffffffffffffffffffffffffffffffffffffffff021916908373ffffffffffffffffffffffffffffffffffffffff16021790555086600260006101000a81548173ffffffffffffffffffffffffffffffffffffffff021916908373ffffffffffffffffffffffffffffffffffffffff16021790555085600160006101000a81548173ffffffffffffffffffffffffffffffffffffffff021916908373ffffffffffffffffffffffffffffffffffffffff1602179055508460038190555083600481905550826006819055508160078190555080600860006101000a81548173ffffffffffffffffffffffffffffffffffffffff021916908373ffffffffffffffffffffffffffffffffffffffff160217905550505050505050505062000317565b600080fd5b600073ffffffffffffffffffffffffffffffffffffffff82169050919050565b6000620001968262000169565b9050919050565b620001a88162000189565b8114620001b457600080fd5b50565b600081519050620001c8816200019d565b92915050565b6000620001db8262000169565b9050919050565b620001ed81620001ce565b8114620001f957600080fd5b50565b6000815190506200020d81620001e2565b92915050565b6000819050919050565b620002288162000213565b81146200023457600080fd5b50565b60008151905062000248816200021d565b92915050565b600080600080600080600080610100898b03121562000272576200027162000164565b5b6000620002828b828c01620001b7565b9850506020620002958b828c01620001b7565b9750506040620002a88b828c01620001fc565b9650506060620002bb8b828c0162000237565b9550506080620002ce8b828c0162000237565b94505060a0620002e18b828c0162000237565b93505060c0620002f48b828c0162000237565b92505060e0620003078b828c01620001b7565b9150509295985092959890939650565b6117d780620003276000396000f3fe6080604052600436106100dd5760003560e01c80637ff9b5961161007f578063af35ae2711610059578063af35ae2714610266578063b7a8807c14610291578063cd38ba95146102bc578063fc0c546a146102c6576100dd565b80637ff9b596146101e55780638da5cb5b14610210578063a98ad46c1461023b576100dd565b8063518ab2a8116100bb578063518ab2a81461014f5780635ef8086f1461017a5780637362377b146101a3578063741bef1a146101ba576100dd565b806312aef8c3146100e25780634b6753bc1461010d5780634f24840914610138575b600080fd5b3480156100ee57600080fd5b506100f76102f1565b6040516101049190610e0e565b60405180910390f35b34801561011957600080fd5b506101226102f7565b60405161012f9190610e0e565b60405180910390f35b34801561014457600080fd5b5061014d6102fd565b005b34801561015b57600080fd5b506101646104ec565b6040516101719190610e0e565b60405180910390f35b34801561018657600080fd5b506101a1600480360381019061019c9190610e5a565b6104f2565b005b3480156101af57600080fd5b506101b8610846565b005b3480156101c657600080fd5b506101cf6109fa565b6040516101dc9190610f06565b60405180910390f35b3480156101f157600080fd5b506101fa610a20565b6040516102079190610e0e565b60405180910390f35b34801561021c57600080fd5b50610225610a26565b6040516102329190610f42565b60405180910390f35b34801561024757600080fd5b50610250610a4c565b60405161025d9190610f7e565b60405180910390f35b34801561027257600080fd5b5061027b610a72565b6040516102889190610e0e565b60405180910390f35b34801561029d57600080fd5b506102a6610a89565b6040516102b39190610e0e565b60405180910390f35b6102c4610a8f565b005b3480156102d257600080fd5b506102db610cd3565b6040516102e89190610fba565b60405180910390f35b60045481565b60075481565b600160009054906101000a900473ffffffffffffffffffffffffffffffffffffffff1673ffffffffffffffffffffffffffffffffffffffff163373ffffffffffffffffffffffffffffffffffffffff161461038d576040517f08c379a000000000000000000000000000000000000000000000000000000000815260040161038490611058565b60405180910390fd5b60075442116103d1576040517f08c379a00000000000000000000000000000000000000000000000000000000081526004016103c8906110c4565b60405180910390fd5b60006005546004546103e39190611113565b905060008111156104b05760008054906101000a900473ffffffffffffffffffffffffffffffffffffffff1673ffffffffffffffffffffffffffffffffffffffff1663a9059cbb600160009054906101000a900473ffffffffffffffffffffffffffffffffffffffff16836040518363ffffffff1660e01b815260040161046b929190611168565b6020604051808303816000875af115801561048a573d6000803e3d6000fd5b505050506040513d601f19601f820116820180604052508101906104ae91906111c9565b505b7fbbf40e708b73b2d2689ef2694587d8e2ed884907ff46892bd20cc8098d3fb2fa6005546040516104e19190610e0e565b60405180910390a150565b60055481565b600654421015801561050657506007544211155b610545576040517f08c379a000000000000000000000000000000000000000000000000000000000815260040161053c90611242565b60405180910390fd5b60008111610588576040517f08c379a000000000000000000000000000000000000000000000000000000000815260040161057f906112d4565b60405180910390fd5b60006003548261059891906112f4565b9050600260009054906101000a900473ffffffffffffffffffffffffffffffffffffffff1673ffffffffffffffffffffffffffffffffffffffff166323b872dd33600160009054906101000a900473ffffffffffffffffffffffffffffffffffffffff16846040518463ffffffff1660e01b815260040161061b93929190611357565b6020604051808303816000875af115801561063a573d6000803e3d6000fd5b505050506040513d601f19601f8201168201806040525081019061065e91906111c9565b61069d576040517f08c379a0000000000000000000000000000000000000000000000000000000008152600401610694906113da565b60405180910390fd5b6003546005546004546106b09190611113565b6106ba91906112f4565b8111156106fc576040517f08c379a00000000000000000000000000000000000000000000000000000000081526004016106f39061146c565b60405180910390fd5b8160055461070a919061148c565b60058190555060008060009054906101000a900473ffffffffffffffffffffffffffffffffffffffff1673ffffffffffffffffffffffffffffffffffffffff1663a9059cbb33856040518363ffffffff1660e01b815260040161076e9291906114c0565b6020604051808303816000875af115801561078d573d6000803e3d6000fd5b505050506040513d601f19601f820116820180604052508101906107b191906111c9565b9050806107f3576040517f08c379a00000000000000000000000000000000000000000000000000000000081526004016107ea90611535565b60405180910390fd5b3373ffffffffffffffffffffffffffffffffffffffff167f8f28852646c20cc973d3a8218f7eefed58c25c909f78f0265af4818c3d4dc271846040516108399190610e0e565b60405180910390a2505050565b600160009054906101000a900473ffffffffffffffffffffffffffffffffffffffff1673ffffffffffffffffffffffffffffffffffffffff163373ffffffffffffffffffffffffffffffffffffffff16146108d6576040517f08c379a00000000000000000000000000000000000000000000000000000000081526004016108cd90611058565b60405180910390fd5b60004790506000811161091e576040517f08c379a0000000000000000000000000000000000000000000000000000000008152600401610915906115a1565b60405180910390fd5b600160009054906101000a900473ffffffffffffffffffffffffffffffffffffffff1673ffffffffffffffffffffffffffffffffffffffff166108fc829081150290604051600060405180830381858888f19350505050158015610986573d6000803e3d6000fd5b50600160009054906101000a900473ffffffffffffffffffffffffffffffffffffffff1673ffffffffffffffffffffffffffffffffffffffff167f7fcf532c15f0a6db0bd6d0e038bea71d30d808c7d98cb3bf7268a95bf5081b65826040516109ef9190610e0e565b60405180910390a250565b600860009054906101000a900473ffffffffffffffffffffffffffffffffffffffff1681565b60035481565b600160009054906101000a900473ffffffffffffffffffffffffffffffffffffffff1681565b600260009054906101000a900473ffffffffffffffffffffffffffffffffffffffff1681565b6000600554600454610a849190611113565b905090565b60065481565b6006544210158015610aa357506007544211155b610ae2576040517f08c379a0000000000000000000000000000000000000000000000000000000008152600401610ad990611242565b60405180910390fd5b600034905060008111610b2a576040517f08c379a0000000000000000000000000000000000000000000000000000000008152600401610b21906112d4565b60405180910390fd5b6000610b3582610cf7565b9050600554600454610b479190611113565b811115610b89576040517f08c379a0000000000000000000000000000000000000000000000000000000008152600401610b809061146c565b60405180910390fd5b80600554610b97919061148c565b60058190555060008060009054906101000a900473ffffffffffffffffffffffffffffffffffffffff1673ffffffffffffffffffffffffffffffffffffffff1663a9059cbb33846040518363ffffffff1660e01b8152600401610bfb9291906114c0565b6020604051808303816000875af1158015610c1a573d6000803e3d6000fd5b505050506040513d601f19601f82011682018060405250810190610c3e91906111c9565b905080610c80576040517f08c379a0000000000000000000000000000000000000000000000000000000008152600401610c7790611535565b60405180910390fd5b3373ffffffffffffffffffffffffffffffffffffffff167f8f28852646c20cc973d3a8218f7eefed58c25c909f78f0265af4818c3d4dc27183604051610cc69190610e0e565b60405180910390a2505050565b60008054906101000a900473ffffffffffffffffffffffffffffffffffffffff1681565b600080610d02610d44565b90506000670de0b6b3a76400008483610d1b91906112f4565b610d2591906115f0565b9050600060035482610d3791906115f0565b9050809350505050919050565b600080600860009054906101000a900473ffffffffffffffffffffffffffffffffffffffff1673ffffffffffffffffffffffffffffffffffffffff1663feaf968c6040518163ffffffff1660e01b815260040160a060405180830381865afa158015610db4573d6000803e3d6000fd5b505050506040513d601f19601f82011682018060405250810190610dd891906116ae565b5050509150506402540be40081610def9190611729565b91505090565b6000819050919050565b610e0881610df5565b82525050565b6000602082019050610e236000830184610dff565b92915050565b600080fd5b610e3781610df5565b8114610e4257600080fd5b50565b600081359050610e5481610e2e565b92915050565b600060208284031215610e7057610e6f610e29565b5b6000610e7e84828501610e45565b91505092915050565b600073ffffffffffffffffffffffffffffffffffffffff82169050919050565b6000819050919050565b6000610ecc610ec7610ec284610e87565b610ea7565b610e87565b9050919050565b6000610ede82610eb1565b9050919050565b6000610ef082610ed3565b9050919050565b610f0081610ee5565b82525050565b6000602082019050610f1b6000830184610ef7565b92915050565b6000610f2c82610e87565b9050919050565b610f3c81610f21565b82525050565b6000602082019050610f576000830184610f33565b92915050565b6000610f6882610ed3565b9050919050565b610f7881610f5d565b82525050565b6000602082019050610f936000830184610f6f565b92915050565b6000610fa482610ed3565b9050919050565b610fb481610f99565b82525050565b6000602082019050610fcf6000830184610fab565b92915050565b600082825260208201905092915050565b7f49434f3a2063616c6c6572206973206e6f742074686520746f6b656e206f776e60008201527f6572000000000000000000000000000000000000000000000000000000000000602082015250565b6000611042602283610fd5565b915061104d82610fe6565b604082019050919050565b6000602082019050818103600083015261107181611035565b9050919050565b7f49434f3a2049434f206973207374696c6c206f6e676f696e6700000000000000600082015250565b60006110ae601983610fd5565b91506110b982611078565b602082019050919050565b600060208201905081810360008301526110dd816110a1565b9050919050565b7f4e487b7100000000000000000000000000000000000000000000000000000000600052601160045260246000fd5b600061111e82610df5565b915061112983610df5565b9250828203905081811115611141576111406110e4565b5b92915050565b600061115282610ed3565b9050919050565b61116281611147565b82525050565b600060408201905061117d6000830185611159565b61118a6020830184610dff565b9392505050565b60008115159050919050565b6111a681611191565b81146111b157600080fd5b50565b6000815190506111c38161119d565b92915050565b6000602082840312156111df576111de610e29565b5b60006111ed848285016111b4565b91505092915050565b7f49434f3a206e6f74206f70656e00000000000000000000000000000000000000600082015250565b600061122c600d83610fd5565b9150611237826111f6565b602082019050919050565b6000602082019050818103600083015261125b8161121f565b9050919050565b7f49434f3a20616d6f756e74206d7573742062652067726561746572207468616e60008201527f207a65726f000000000000000000000000000000000000000000000000000000602082015250565b60006112be602583610fd5565b91506112c982611262565b604082019050919050565b600060208201905081810360008301526112ed816112b1565b9050919050565b60006112ff82610df5565b915061130a83610df5565b925082820261131881610df5565b9150828204841483151761132f5761132e6110e4565b5b5092915050565b600061134182610e87565b9050919050565b61135181611336565b82525050565b600060608201905061136c6000830186611348565b6113796020830185611159565b6113866040830184610dff565b949350505050565b7f55534454207472616e73666572206661696c6564000000000000000000000000600082015250565b60006113c4601483610fd5565b91506113cf8261138e565b602082019050919050565b600060208201905081810360008301526113f3816113b7565b9050919050565b7f49434f3a206e6f7420656e6f75676820746f6b656e73206c65667420666f722060008201527f73616c6500000000000000000000000000000000000000000000000000000000602082015250565b6000611456602483610fd5565b9150611461826113fa565b604082019050919050565b6000602082019050818103600083015261148581611449565b9050919050565b600061149782610df5565b91506114a283610df5565b92508282019050808211156114ba576114b96110e4565b5b92915050565b60006040820190506114d56000830185611348565b6114e26020830184610dff565b9392505050565b7f546f6b656e207472616e73666572206661696c65640000000000000000000000600082015250565b600061151f601583610fd5565b915061152a826114e9565b602082019050919050565b6000602082019050818103600083015261154e81611512565b9050919050565b7f49434f3a206e6f20457468657220746f20776974686472617700000000000000600082015250565b600061158b601983610fd5565b915061159682611555565b602082019050919050565b600060208201905081810360008301526115ba8161157e565b9050919050565b7f4e487b7100000000000000000000000000000000000000000000000000000000600052601260045260246000fd5b60006115fb82610df5565b915061160683610df5565b925082611616576116156115c1565b5b828204905092915050565b600069ffffffffffffffffffff82169050919050565b61164081611621565b811461164b57600080fd5b50565b60008151905061165d81611637565b92915050565b6000819050919050565b61167681611663565b811461168157600080fd5b50565b6000815190506116938161166d565b92915050565b6000815190506116a881610e2e565b92915050565b600080600080600060a086880312156116ca576116c9610e29565b5b60006116d88882890161164e565b95505060206116e988828901611684565b94505060406116fa88828901611699565b935050606061170b88828901611699565b925050608061171c8882890161164e565b9150509295509295909350565b600061173482611663565b915061173f83611663565b925082820261174d81611663565b91507f80000000000000000000000000000000000000000000000000000000000000008414600084121615611785576117846110e4565b5b828205841483151761179a576117996110e4565b5b509291505056fea2646970667358221220623b781dce771f6156c14f11463b16d96545e4e09827c6e3eebcd04dce1803d264736f6c63430008180033",
  "devdoc": {
    "kind": "dev",
    "methods": {},
    "version": 1
  },
  "userdoc": {
    "kind": "user",
    "methods": {},
    "version": 1
  },
  "storageLayout": {
    "storage": [
      {
        "astId": 839,
        "contract": "contracts/ICO.sol:ICO",
        "label": "token",
        "offset": 0,
        "slot": "0",
        "type": "t_contract(ERC20)697"
      },
      {
        "astId": 841,
        "contract": "contracts/ICO.sol:ICO",
        "label": "owner",
        "offset": 0,
        "slot": "1",
        "type": "t_address_payable"
      },
      {
        "astId": 844,
        "contract": "contracts/ICO.sol:ICO",
        "label": "usdtToken",
        "offset": 0,
        "slot": "2",
        "type": "t_contract(IERC20)775"
      },
      {
        "astId": 846,
        "contract": "contracts/ICO.sol:ICO",
        "label": "tokenPrice",
        "offset": 0,
        "slot": "3",
        "type": "t_uint256"
      },
      {
        "astId": 848,
        "contract": "contracts/ICO.sol:ICO",
        "label": "tokensForSale",
        "offset": 0,
        "slot": "4",
        "type": "t_uint256"
      },
      {
        "astId": 850,
        "contract": "contracts/ICO.sol:ICO",
        "label": "tokensSold",
        "offset": 0,
        "slot": "5",
        "type": "t_uint256"
      },
      {
        "astId": 852,
        "contract": "contracts/ICO.sol:ICO",
        "label": "openingTime",
        "offset": 0,
        "slot": "6",
        "type": "t_uint256"
      },
      {
        "astId": 854,
        "contract": "contracts/ICO.sol:ICO",
        "label": "closingTime",
        "offset": 0,
        "slot": "7",
        "type": "t_uint256"
      },
      {
        "astId": 857,
        "contract": "contracts/ICO.sol:ICO",
        "label": "priceFeed",
        "offset": 0,
        "slot": "8",
        "type": "t_contract(AggregatorV3Interface)45"
      }
    ],
    "types": {
      "t_address_payable": {
        "encoding": "inplace",
        "label": "address payable",
        "numberOfBytes": "20"
      },
      "t_contract(AggregatorV3Interface)45": {
        "encoding": "inplace",
        "label": "contract AggregatorV3Interface",
        "numberOfBytes": "20"
      },
      "t_contract(ERC20)697": {
        "encoding": "inplace",
        "label": "contract ERC20",
        "numberOfBytes": "20"
      },
      "t_contract(IERC20)775": {
        "encoding": "inplace",
        "label": "contract IERC20",
        "numberOfBytes": "20"
      },
      "t_uint256": {
        "encoding": "inplace",
        "label": "uint256",
        "numberOfBytes": "32"
      }
    }
  }
}