{
  "address": "0xA1F06372Ed2062f24dE85bEdB1C4B90C1900A56e",
  "abi": [
    {
      "inputs": [
        {
          "internalType": "uint256",
          "name": "_tokenPrice",
          "type": "uint256"
        },
        {
          "internalType": "uint256",
          "name": "_tokensForSale",
          "type": "uint256"
        },
        {
          "internalType": "uint256",
          "name": "_openingTime",
          "type": "uint256"
        },
        {
          "internalType": "uint256",
          "name": "_closingTime",
          "type": "uint256"
        },
        {
          "internalType": "address",
          "name": "_priceFeedAddress",
          "type": "address"
        },
        {
          "internalType": "address",
          "name": "_token",
          "type": "address"
        },
        {
          "internalType": "address",
          "name": "_usdtToken",
          "type": "address"
        },
        {
          "internalType": "address payable",
          "name": "_owner",
          "type": "address"
        }
      ],
      "stateMutability": "nonpayable",
      "type": "constructor"
    },
    {
      "anonymous": false,
      "inputs": [
        {
          "indexed": false,
          "internalType": "uint256",
          "name": "tokensSold",
          "type": "uint256"
        }
      ],
      "name": "ICOEnded",
      "type": "event"
    },
    {
      "anonymous": false,
      "inputs": [
        {
          "indexed": true,
          "internalType": "address",
          "name": "purchaser",
          "type": "address"
        },
        {
          "indexed": false,
          "internalType": "uint256",
          "name": "amount",
          "type": "uint256"
        }
      ],
      "name": "TokensPurchased",
      "type": "event"
    },
    {
      "anonymous": false,
      "inputs": [
        {
          "indexed": true,
          "internalType": "address",
          "name": "owner",
          "type": "address"
        },
        {
          "indexed": false,
          "internalType": "uint256",
          "name": "amount",
          "type": "uint256"
        }
      ],
      "name": "Withdrawal",
      "type": "event"
    },
    {
      "inputs": [
        {
          "internalType": "uint256",
          "name": "giftCode",
          "type": "uint256"
        }
      ],
      "name": "buyTokensWithEther",
      "outputs": [],
      "stateMutability": "payable",
      "type": "function"
    },
    {
      "inputs": [
        {
          "internalType": "uint256",
          "name": "_amount",
          "type": "uint256"
        },
        {
          "internalType": "uint256",
          "name": "giftCode",
          "type": "uint256"
        }
      ],
      "name": "buyTokensWithUSDT",
      "outputs": [],
      "stateMutability": "nonpayable",
      "type": "function"
    },
    {
      "inputs": [],
      "name": "closingTime",
      "outputs": [
        {
          "internalType": "uint256",
          "name": "",
          "type": "uint256"
        }
      ],
      "stateMutability": "view",
      "type": "function"
    },
    {
      "inputs": [],
      "name": "endICO",
      "outputs": [],
      "stateMutability": "nonpayable",
      "type": "function"
    },
    {
      "inputs": [
        {
          "internalType": "uint256",
          "name": "index",
          "type": "uint256"
        }
      ],
      "name": "getGiftCodeSales",
      "outputs": [
        {
          "internalType": "uint256",
          "name": "",
          "type": "uint256"
        }
      ],
      "stateMutability": "view",
      "type": "function"
    },
    {
      "inputs": [],
      "name": "getRemainingTokens",
      "outputs": [
        {
          "internalType": "uint256",
          "name": "",
          "type": "uint256"
        }
      ],
      "stateMutability": "view",
      "type": "function"
    },
    {
      "inputs": [],
      "name": "openingTime",
      "outputs": [
        {
          "internalType": "uint256",
          "name": "",
          "type": "uint256"
        }
      ],
      "stateMutability": "view",
      "type": "function"
    },
    {
      "inputs": [],
      "name": "owner",
      "outputs": [
        {
          "internalType": "address payable",
          "name": "",
          "type": "address"
        }
      ],
      "stateMutability": "view",
      "type": "function"
    },
    {
      "inputs": [],
      "name": "priceFeed",
      "outputs": [
        {
          "internalType": "contract AggregatorV3Interface",
          "name": "",
          "type": "address"
        }
      ],
      "stateMutability": "view",
      "type": "function"
    },
    {
      "inputs": [],
      "name": "token",
      "outputs": [
        {
          "internalType": "contract ERC20",
          "name": "",
          "type": "address"
        }
      ],
      "stateMutability": "view",
      "type": "function"
    },
    {
      "inputs": [],
      "name": "tokenPrice",
      "outputs": [
        {
          "internalType": "uint256",
          "name": "",
          "type": "uint256"
        }
      ],
      "stateMutability": "view",
      "type": "function"
    },
    {
      "inputs": [
        {
          "internalType": "address",
          "name": "",
          "type": "address"
        }
      ],
      "name": "tokensBought",
      "outputs": [
        {
          "internalType": "uint256",
          "name": "",
          "type": "uint256"
        }
      ],
      "stateMutability": "view",
      "type": "function"
    },
    {
      "inputs": [],
      "name": "tokensForSale",
      "outputs": [
        {
          "internalType": "uint256",
          "name": "",
          "type": "uint256"
        }
      ],
      "stateMutability": "view",
      "type": "function"
    },
    {
      "inputs": [],
      "name": "tokensSold",
      "outputs": [
        {
          "internalType": "uint256",
          "name": "",
          "type": "uint256"
        }
      ],
      "stateMutability": "view",
      "type": "function"
    },
    {
      "inputs": [],
      "name": "usdtToken",
      "outputs": [
        {
          "internalType": "contract IERC20",
          "name": "",
          "type": "address"
        }
      ],
      "stateMutability": "view",
      "type": "function"
    },
    {
      "inputs": [],
      "name": "withdrawEther",
      "outputs": [],
      "stateMutability": "nonpayable",
      "type": "function"
    }
  ],
  "transactionHash": "0xcfa113d42484eddcface29c0f7bcd95cff1df2268e531cbda77471ec7b65c62d",
  "args": [
    1,
    1000000,
    1715522422,
    1715695222,
    "0x694AA1769357215DE4FAC081bf1f309aDC325306",
    "0x95FcB3c84CA2250356eD78d75bed1A15385193D2",
    "0xdCdC73413C6136c9ABcC3E8d250af42947aC2Fc7",
    "0x6Ac97c57138BD707680A10A798bAf24aCe62Ae9D"
  ],
  "numDeployments": 32,
  "solcInputHash": "5a5ad672b8f9ab8085acf1c980d46b86",
  "bytecode": "0x60806040523480156200001157600080fd5b5060405162001f1338038062001f1383398181016040528101906200003791906200024e565b826000806101000a81548173ffffffffffffffffffffffffffffffffffffffff021916908373ffffffffffffffffffffffffffffffffffffffff16021790555081600260006101000a81548173ffffffffffffffffffffffffffffffffffffffff021916908373ffffffffffffffffffffffffffffffffffffffff16021790555080600160006101000a81548173ffffffffffffffffffffffffffffffffffffffff021916908373ffffffffffffffffffffffffffffffffffffffff1602179055508760038190555086600481905550856006819055508460078190555083600860006101000a81548173ffffffffffffffffffffffffffffffffffffffff021916908373ffffffffffffffffffffffffffffffffffffffff160217905550505050505050505062000317565b600080fd5b6000819050919050565b6200017e8162000169565b81146200018a57600080fd5b50565b6000815190506200019e8162000173565b92915050565b600073ffffffffffffffffffffffffffffffffffffffff82169050919050565b6000620001d182620001a4565b9050919050565b620001e381620001c4565b8114620001ef57600080fd5b50565b6000815190506200020381620001d8565b92915050565b60006200021682620001a4565b9050919050565b620002288162000209565b81146200023457600080fd5b50565b60008151905062000248816200021d565b92915050565b600080600080600080600080610100898b03121562000272576200027162000164565b5b6000620002828b828c016200018d565b9850506020620002958b828c016200018d565b9750506040620002a88b828c016200018d565b9650506060620002bb8b828c016200018d565b9550506080620002ce8b828c01620001f2565b94505060a0620002e18b828c01620001f2565b93505060c0620002f48b828c01620001f2565b92505060e0620003078b828c0162000237565b9150509295985092959890939650565b611bec80620003276000396000f3fe6080604052600436106100f35760003560e01c80637362377b1161008a578063a98ad46c11610059578063a98ad46c146102e7578063af35ae2714610312578063b7a8807c1461033d578063fc0c546a14610368576100f3565b80637362377b1461024f578063741bef1a146102665780637ff9b596146102915780638da5cb5b146102bc576100f3565b80633371e2d9116100c65780633371e2d9146101b95780634b6753bc146101e25780634f2484091461020d578063518ab2a814610224576100f3565b806312aef8c3146100f857806324c253c114610123578063264d77971461013f5780632bc6a4001461017c575b600080fd5b34801561010457600080fd5b5061010d610393565b60405161011a9190611142565b60405180910390f35b61013d6004803603810190610138919061118e565b610399565b005b34801561014b57600080fd5b5061016660048036038101906101619190611219565b610671565b6040516101739190611142565b60405180910390f35b34801561018857600080fd5b506101a3600480360381019061019e919061118e565b610689565b6040516101b09190611142565b60405180910390f35b3480156101c557600080fd5b506101e060048036038101906101db9190611246565b610736565b005b3480156101ee57600080fd5b506101f7610b31565b6040516102049190611142565b60405180910390f35b34801561021957600080fd5b50610222610b37565b005b34801561023057600080fd5b50610239610db1565b6040516102469190611142565b60405180910390f35b34801561025b57600080fd5b50610264610db7565b005b34801561027257600080fd5b5061027b610f6b565b60405161028891906112e5565b60405180910390f35b34801561029d57600080fd5b506102a6610f91565b6040516102b39190611142565b60405180910390f35b3480156102c857600080fd5b506102d1610f97565b6040516102de9190611321565b60405180910390f35b3480156102f357600080fd5b506102fc610fbd565b604051610309919061135d565b60405180910390f35b34801561031e57600080fd5b50610327610fe3565b6040516103349190611142565b60405180910390f35b34801561034957600080fd5b50610352610ffa565b60405161035f9190611142565b60405180910390f35b34801561037457600080fd5b5061037d611000565b60405161038a9190611399565b60405180910390f35b60045481565b60065442101580156103ad57506007544211155b6103ec576040517f08c379a00000000000000000000000000000000000000000000000000000000081526004016103e390611411565b60405180910390fd5b600034905060008111610434576040517f08c379a000000000000000000000000000000000000000000000000000000000815260040161042b906114a3565b60405180910390fd5b600061043f82611024565b905060055460045461045191906114f2565b811115610493576040517f08c379a000000000000000000000000000000000000000000000000000000000815260040161048a90611598565b60405180910390fd5b806005546104a191906115b8565b60058190555060008060009054906101000a900473ffffffffffffffffffffffffffffffffffffffff1673ffffffffffffffffffffffffffffffffffffffff1663a9059cbb33670de0b6b3a7640000856104fb91906115ec565b6040518363ffffffff1660e01b815260040161051892919061163d565b6020604051808303816000875af1158015610537573d6000803e3d6000fd5b505050506040513d601f19601f8201168201806040525081019061055b919061169e565b90508061059d576040517f08c379a000000000000000000000000000000000000000000000000000000000815260040161059490611717565b60405180910390fd5b81600960003373ffffffffffffffffffffffffffffffffffffffff1673ffffffffffffffffffffffffffffffffffffffff16815260200190815260200160002060008282546105ec91906115b8565b9250508190555081600a6000868152602001908152602001600020600082825461061691906115b8565b925050819055503373ffffffffffffffffffffffffffffffffffffffff167f8f28852646c20cc973d3a8218f7eefed58c25c909f78f0265af4818c3d4dc271836040516106639190611142565b60405180910390a250505050565b60096020528060005260406000206000915090505481565b6000600160009054906101000a900473ffffffffffffffffffffffffffffffffffffffff1673ffffffffffffffffffffffffffffffffffffffff163373ffffffffffffffffffffffffffffffffffffffff161461071b576040517f08c379a0000000000000000000000000000000000000000000000000000000008152600401610712906117a9565b60405180910390fd5b600a6000838152602001908152602001600020549050919050565b600654421015801561074a57506007544211155b610789576040517f08c379a000000000000000000000000000000000000000000000000000000000815260040161078090611411565b60405180910390fd5b600082116107cc576040517f08c379a00000000000000000000000000000000000000000000000000000000081526004016107c3906114a3565b60405180910390fd5b6003546005546004546107df91906114f2565b6107e991906115ec565b82111561082b576040517f08c379a000000000000000000000000000000000000000000000000000000000815260040161082290611598565b60405180910390fd5b6000670de0b6b3a76400006003548461084491906115ec565b61084e91906115ec565b9050600260009054906101000a900473ffffffffffffffffffffffffffffffffffffffff1673ffffffffffffffffffffffffffffffffffffffff166323b872dd33600160009054906101000a900473ffffffffffffffffffffffffffffffffffffffff16846040518463ffffffff1660e01b81526004016108d1939291906117ea565b6020604051808303816000875af11580156108f0573d6000803e3d6000fd5b505050506040513d601f19601f82011682018060405250810190610914919061169e565b610953576040517f08c379a000000000000000000000000000000000000000000000000000000000815260040161094a9061186d565b60405180910390fd5b8260055461096191906115b8565b60058190555060008060009054906101000a900473ffffffffffffffffffffffffffffffffffffffff1673ffffffffffffffffffffffffffffffffffffffff1663a9059cbb33670de0b6b3a7640000876109bb91906115ec565b6040518363ffffffff1660e01b81526004016109d892919061163d565b6020604051808303816000875af11580156109f7573d6000803e3d6000fd5b505050506040513d601f19601f82011682018060405250810190610a1b919061169e565b905080610a5d576040517f08c379a0000000000000000000000000000000000000000000000000000000008152600401610a5490611717565b60405180910390fd5b83600960003373ffffffffffffffffffffffffffffffffffffffff1673ffffffffffffffffffffffffffffffffffffffff1681526020019081526020016000206000828254610aac91906115b8565b9250508190555083600a60008581526020019081526020016000206000828254610ad691906115b8565b925050819055503373ffffffffffffffffffffffffffffffffffffffff167f8f28852646c20cc973d3a8218f7eefed58c25c909f78f0265af4818c3d4dc27185604051610b239190611142565b60405180910390a250505050565b60075481565b600160009054906101000a900473ffffffffffffffffffffffffffffffffffffffff1673ffffffffffffffffffffffffffffffffffffffff163373ffffffffffffffffffffffffffffffffffffffff1614610bc7576040517f08c379a0000000000000000000000000000000000000000000000000000000008152600401610bbe906117a9565b60405180910390fd5b6007544211610c0b576040517f08c379a0000000000000000000000000000000000000000000000000000000008152600401610c02906118d9565b60405180910390fd5b60008060009054906101000a900473ffffffffffffffffffffffffffffffffffffffff1673ffffffffffffffffffffffffffffffffffffffff166370a08231306040518263ffffffff1660e01b8152600401610c6791906118f9565b602060405180830381865afa158015610c84573d6000803e3d6000fd5b505050506040513d601f19601f82011682018060405250810190610ca89190611929565b90506000811115610d755760008054906101000a900473ffffffffffffffffffffffffffffffffffffffff1673ffffffffffffffffffffffffffffffffffffffff1663a9059cbb600160009054906101000a900473ffffffffffffffffffffffffffffffffffffffff16836040518363ffffffff1660e01b8152600401610d30929190611956565b6020604051808303816000875af1158015610d4f573d6000803e3d6000fd5b505050506040513d601f19601f82011682018060405250810190610d73919061169e565b505b7fbbf40e708b73b2d2689ef2694587d8e2ed884907ff46892bd20cc8098d3fb2fa600554604051610da69190611142565b60405180910390a150565b60055481565b600160009054906101000a900473ffffffffffffffffffffffffffffffffffffffff1673ffffffffffffffffffffffffffffffffffffffff163373ffffffffffffffffffffffffffffffffffffffff1614610e47576040517f08c379a0000000000000000000000000000000000000000000000000000000008152600401610e3e906117a9565b60405180910390fd5b600047905060008111610e8f576040517f08c379a0000000000000000000000000000000000000000000000000000000008152600401610e86906119cb565b60405180910390fd5b600160009054906101000a900473ffffffffffffffffffffffffffffffffffffffff1673ffffffffffffffffffffffffffffffffffffffff166108fc829081150290604051600060405180830381858888f19350505050158015610ef7573d6000803e3d6000fd5b50600160009054906101000a900473ffffffffffffffffffffffffffffffffffffffff1673ffffffffffffffffffffffffffffffffffffffff167f7fcf532c15f0a6db0bd6d0e038bea71d30d808c7d98cb3bf7268a95bf5081b6582604051610f609190611142565b60405180910390a250565b600860009054906101000a900473ffffffffffffffffffffffffffffffffffffffff1681565b60035481565b600160009054906101000a900473ffffffffffffffffffffffffffffffffffffffff1681565b600260009054906101000a900473ffffffffffffffffffffffffffffffffffffffff1681565b6000600554600454610ff591906114f2565b905090565b60065481565b60008054906101000a900473ffffffffffffffffffffffffffffffffffffffff1681565b60008061102f611078565b905060006ec097ce7bc90715b34b9f1000000000848361104f91906115ec565b6110599190611a1a565b905060006003548261106b9190611a1a565b9050809350505050919050565b600080600860009054906101000a900473ffffffffffffffffffffffffffffffffffffffff1673ffffffffffffffffffffffffffffffffffffffff1663feaf968c6040518163ffffffff1660e01b815260040160a060405180830381865afa1580156110e8573d6000803e3d6000fd5b505050506040513d601f19601f8201168201806040525081019061110c9190611ac3565b5050509150506402540be400816111239190611b3e565b91505090565b6000819050919050565b61113c81611129565b82525050565b60006020820190506111576000830184611133565b92915050565b600080fd5b61116b81611129565b811461117657600080fd5b50565b60008135905061118881611162565b92915050565b6000602082840312156111a4576111a361115d565b5b60006111b284828501611179565b91505092915050565b600073ffffffffffffffffffffffffffffffffffffffff82169050919050565b60006111e6826111bb565b9050919050565b6111f6816111db565b811461120157600080fd5b50565b600081359050611213816111ed565b92915050565b60006020828403121561122f5761122e61115d565b5b600061123d84828501611204565b91505092915050565b6000806040838503121561125d5761125c61115d565b5b600061126b85828601611179565b925050602061127c85828601611179565b9150509250929050565b6000819050919050565b60006112ab6112a66112a1846111bb565b611286565b6111bb565b9050919050565b60006112bd82611290565b9050919050565b60006112cf826112b2565b9050919050565b6112df816112c4565b82525050565b60006020820190506112fa60008301846112d6565b92915050565b600061130b826111bb565b9050919050565b61131b81611300565b82525050565b60006020820190506113366000830184611312565b92915050565b6000611347826112b2565b9050919050565b6113578161133c565b82525050565b6000602082019050611372600083018461134e565b92915050565b6000611383826112b2565b9050919050565b61139381611378565b82525050565b60006020820190506113ae600083018461138a565b92915050565b600082825260208201905092915050565b7f49434f3a206e6f74206f70656e00000000000000000000000000000000000000600082015250565b60006113fb600d836113b4565b9150611406826113c5565b602082019050919050565b6000602082019050818103600083015261142a816113ee565b9050919050565b7f49434f3a20616d6f756e74206d7573742062652067726561746572207468616e60008201527f207a65726f000000000000000000000000000000000000000000000000000000602082015250565b600061148d6025836113b4565b915061149882611431565b604082019050919050565b600060208201905081810360008301526114bc81611480565b9050919050565b7f4e487b7100000000000000000000000000000000000000000000000000000000600052601160045260246000fd5b60006114fd82611129565b915061150883611129565b92508282039050818111156115205761151f6114c3565b5b92915050565b7f49434f3a206e6f7420656e6f75676820746f6b656e73206c65667420666f722060008201527f73616c6500000000000000000000000000000000000000000000000000000000602082015250565b60006115826024836113b4565b915061158d82611526565b604082019050919050565b600060208201905081810360008301526115b181611575565b9050919050565b60006115c382611129565b91506115ce83611129565b92508282019050808211156115e6576115e56114c3565b5b92915050565b60006115f782611129565b915061160283611129565b925082820261161081611129565b91508282048414831517611627576116266114c3565b5b5092915050565b611637816111db565b82525050565b6000604082019050611652600083018561162e565b61165f6020830184611133565b9392505050565b60008115159050919050565b61167b81611666565b811461168657600080fd5b50565b60008151905061169881611672565b92915050565b6000602082840312156116b4576116b361115d565b5b60006116c284828501611689565b91505092915050565b7f546f6b656e207472616e73666572206661696c65640000000000000000000000600082015250565b60006117016015836113b4565b915061170c826116cb565b602082019050919050565b60006020820190508181036000830152611730816116f4565b9050919050565b7f49434f3a2063616c6c6572206973206e6f742074686520746f6b656e206f776e60008201527f6572000000000000000000000000000000000000000000000000000000000000602082015250565b60006117936022836113b4565b915061179e82611737565b604082019050919050565b600060208201905081810360008301526117c281611786565b9050919050565b60006117d4826112b2565b9050919050565b6117e4816117c9565b82525050565b60006060820190506117ff600083018661162e565b61180c60208301856117db565b6118196040830184611133565b949350505050565b7f55534454207472616e73666572206661696c6564000000000000000000000000600082015250565b60006118576014836113b4565b915061186282611821565b602082019050919050565b600060208201905081810360008301526118868161184a565b9050919050565b7f49434f3a2049434f206973207374696c6c206f6e676f696e6700000000000000600082015250565b60006118c36019836113b4565b91506118ce8261188d565b602082019050919050565b600060208201905081810360008301526118f2816118b6565b9050919050565b600060208201905061190e600083018461162e565b92915050565b60008151905061192381611162565b92915050565b60006020828403121561193f5761193e61115d565b5b600061194d84828501611914565b91505092915050565b600060408201905061196b60008301856117db565b6119786020830184611133565b9392505050565b7f49434f3a206e6f20457468657220746f20776974686472617700000000000000600082015250565b60006119b56019836113b4565b91506119c08261197f565b602082019050919050565b600060208201905081810360008301526119e4816119a8565b9050919050565b7f4e487b7100000000000000000000000000000000000000000000000000000000600052601260045260246000fd5b6000611a2582611129565b9150611a3083611129565b925082611a4057611a3f6119eb565b5b828204905092915050565b600069ffffffffffffffffffff82169050919050565b611a6a81611a4b565b8114611a7557600080fd5b50565b600081519050611a8781611a61565b92915050565b6000819050919050565b611aa081611a8d565b8114611aab57600080fd5b50565b600081519050611abd81611a97565b92915050565b600080600080600060a08688031215611adf57611ade61115d565b5b6000611aed88828901611a78565b9550506020611afe88828901611aae565b9450506040611b0f88828901611914565b9350506060611b2088828901611914565b9250506080611b3188828901611a78565b9150509295509295909350565b6000611b4982611a8d565b9150611b5483611a8d565b9250828202611b6281611a8d565b91507f80000000000000000000000000000000000000000000000000000000000000008414600084121615611b9a57611b996114c3565b5b8282058414831517611baf57611bae6114c3565b5b509291505056fea26469706673582212207558c1f17a3c1d7ccf9a57aa95ffc0ca9e79ed4fb8d35e0ba5c630b8275930df64736f6c63430008180033",
  "devdoc": {
    "kind": "dev",
    "methods": {},
    "version": 1
  },
  "userdoc": {
    "kind": "user",
    "methods": {},
    "version": 1
  },
  "storageLayout": {
    "storage": [
      {
        "astId": 839,
        "contract": "contracts/ICO.sol:ICO",
        "label": "token",
        "offset": 0,
        "slot": "0",
        "type": "t_contract(ERC20)697"
      },
      {
        "astId": 841,
        "contract": "contracts/ICO.sol:ICO",
        "label": "owner",
        "offset": 0,
        "slot": "1",
        "type": "t_address_payable"
      },
      {
        "astId": 844,
        "contract": "contracts/ICO.sol:ICO",
        "label": "usdtToken",
        "offset": 0,
        "slot": "2",
        "type": "t_contract(IERC20)775"
      },
      {
        "astId": 846,
        "contract": "contracts/ICO.sol:ICO",
        "label": "tokenPrice",
        "offset": 0,
        "slot": "3",
        "type": "t_uint256"
      },
      {
        "astId": 848,
        "contract": "contracts/ICO.sol:ICO",
        "label": "tokensForSale",
        "offset": 0,
        "slot": "4",
        "type": "t_uint256"
      },
      {
        "astId": 850,
        "contract": "contracts/ICO.sol:ICO",
        "label": "tokensSold",
        "offset": 0,
        "slot": "5",
        "type": "t_uint256"
      },
      {
        "astId": 852,
        "contract": "contracts/ICO.sol:ICO",
        "label": "openingTime",
        "offset": 0,
        "slot": "6",
        "type": "t_uint256"
      },
      {
        "astId": 854,
        "contract": "contracts/ICO.sol:ICO",
        "label": "closingTime",
        "offset": 0,
        "slot": "7",
        "type": "t_uint256"
      },
      {
        "astId": 857,
        "contract": "contracts/ICO.sol:ICO",
        "label": "priceFeed",
        "offset": 0,
        "slot": "8",
        "type": "t_contract(AggregatorV3Interface)45"
      },
      {
        "astId": 861,
        "contract": "contracts/ICO.sol:ICO",
        "label": "tokensBought",
        "offset": 0,
        "slot": "9",
        "type": "t_mapping(t_address,t_uint256)"
      },
      {
        "astId": 865,
        "contract": "contracts/ICO.sol:ICO",
        "label": "giftCodeSales",
        "offset": 0,
        "slot": "10",
        "type": "t_mapping(t_uint256,t_uint256)"
      }
    ],
    "types": {
      "t_address": {
        "encoding": "inplace",
        "label": "address",
        "numberOfBytes": "20"
      },
      "t_address_payable": {
        "encoding": "inplace",
        "label": "address payable",
        "numberOfBytes": "20"
      },
      "t_contract(AggregatorV3Interface)45": {
        "encoding": "inplace",
        "label": "contract AggregatorV3Interface",
        "numberOfBytes": "20"
      },
      "t_contract(ERC20)697": {
        "encoding": "inplace",
        "label": "contract ERC20",
        "numberOfBytes": "20"
      },
      "t_contract(IERC20)775": {
        "encoding": "inplace",
        "label": "contract IERC20",
        "numberOfBytes": "20"
      },
      "t_mapping(t_address,t_uint256)": {
        "encoding": "mapping",
        "key": "t_address",
        "label": "mapping(address => uint256)",
        "numberOfBytes": "32",
        "value": "t_uint256"
      },
      "t_mapping(t_uint256,t_uint256)": {
        "encoding": "mapping",
        "key": "t_uint256",
        "label": "mapping(uint256 => uint256)",
        "numberOfBytes": "32",
        "value": "t_uint256"
      },
      "t_uint256": {
        "encoding": "inplace",
        "label": "uint256",
        "numberOfBytes": "32"
      }
    }
  }
}